:020000040800F2
:1000000000500020DD150008951500089B1500081C
:10001000A1150008A7150008AD1500080000000094
:10002000000000000000000000000000E1310008B6
:10003000B315000800000000C1330008BF15000818
:1000400025160008251600082516000825160008A4
:100050002516000825160008251600082516000894
:100060002516000825160008251600082516000884
:100070002516000825160008251600082516000874
:100080002516000825160008251600082516000864
:100090002516000825160008251600082516000854
:1000A0002516000825160008251600082516000844
:1000B0002516000825160008251600082516000834
:1000C0002516000825160008251600082516000824
:1000D0002516000825160008251600082516000814
:1000E0002516000825160008251600080000000047
:1000F0000000000000000000000000000000000000
:0C01000000000000000000005FF808F1A3
:1001100010B5054C237833B9044B13B10448AFF341
:1001200000800123237010BD640000200000000047
:100130009838000808B5034B1BB103490348AFF3D7
:10014000008008BD0000000068000020983800080A
:1001500080F0004002E000BF81F0004142001FBF7C
:100160005FEA410392EA030F7FEA226C7FEA236C85
:100170006AD04FEA1262D2EB1363C1BFD21841407A
:1001800048404140B8BF5B42192B88BF704710F010
:10019000004F40F4000020F07F4018BF404211F0B3
:1001A000004F41F4000121F07F4118BF494292EA1B
:1001B000030F3FD0A2F1010241FA03FC10EB0C0047
:1001C000C3F1200301FA03F100F0004302D54942D4
:1001D00060EB4000B0F5000F13D3B0F1807F06D381
:1001E00040084FEA310102F10102FE2A51D2B1F179
:1001F000004F40EBC25008BF20F0010040EA03006E
:100200007047490040EB0000013A28BFB0F5000FED
:10021000EDD2B0FA80FCACF1080CB2EB0C0200FAA3
:100220000CF0AABF00EBC25052421843BCBFD040F2
:100230001843704792F0000F81F4000106BF80F46C
:1002400000000132013BB5E74FEA41037FEA226C2F
:1002500018BF7FEA236C21D092EA030F04D092F0FA
:10026000000F08BF0846704790EA010F1CBF00202E
:10027000704712F07F4F04D1400028BF40F000408B
:10028000704712F100723CBF00F50000704700F0AB
:10029000004343F0FE4040F4000070477FEA2262D2
:1002A00016BF08467FEA23630146420206BF5FEAA3
:1002B000412390EA010F40F4800070474FF00003A3
:1002C00004E000BF10F0004348BF40425FEA000C6A
:1002D00008BF704743F0964301464FF000001CE012
:1002E00050EA010208BF70474FF000030AE000BF68
:1002F00050EA010208BF704711F0004302D54042A6
:1003000061EB41015FEA010C02BF84460146002017
:1003100043F0B64308BFA3F18053A3F50003BCFA32
:100320008CF2083AA3EBC25310DB01FA02FC6344DF
:1003300000FA02FCC2F12002BCF1004F20FA02F2E6
:1003400043EB020008BF20F00100704702F12002D9
:1003500001FA02FCC2F1200250EA4C0021FA02F23A
:1003600043EB020008BF20EADC7070474FF0FF0C3F
:100370001CEAD0521EBF1CEAD15392EA0C0F93EA3A
:100380000C0F6FD01A4480EA010C400218BF5FEADC
:1003900041211ED04FF0006343EA501043EA51114F
:1003A000A0FB01310CF00040B1F5000F3EBF490049
:1003B00041EAD3715B0040EA010062F17F02FD2A4D
:1003C0001DD8B3F1004F40EBC25008BF20F0010030
:1003D000704790F0000F0CF0004C08BF49024CEA47
:1003E000502040EA51207F3AC2BFD2F1FF0340EAD9
:1003F000C250704740F400004FF00003013A5DDC4A
:1004000012F1190FDCBF00F000407047C2F100028A
:10041000410021FA02F1C2F1200200FA02FC5FEA77
:10042000310040F1000053EA4C0308BF20EADC70C1
:10043000704792F0000F00F0004C02BF400010F433
:10044000000F013AF9D040EA0C0093F0000F01F0E0
:10045000004C02BF490011F4000F013BF9D041EA02
:100460000C018FE70CEAD15392EA0C0F18BF93EA04
:100470000C0F0AD030F0004C18BF31F0004CD8D12E
:1004800080EA010000F00040704790F0000F17BFB5
:1004900090F0004F084691F0000F91F0004F14D0FB
:1004A00092EA0C0F01D142020FD193EA0C0F03D153
:1004B0004B0218BF084608D180EA010000F0004056
:1004C00040F0FE4040F40000704740F0FE4040F431
:1004D000400070474FF0FF0C1CEAD0521EBF1CEAD0
:1004E000D15392EA0C0F93EA0C0F69D0A2EB0302EE
:1004F00080EA010C49024FEA402037D04FF0805388
:1005000043EA111143EA10130CF000408B4238BF4C
:100510005B0042F17D024FF4000C8B4224BF5B1A5A
:1005200040EA0C00B3EB510F24BFA3EB510340EAA8
:100530005C00B3EB910F24BFA3EB910340EA9C0056
:10054000B3EBD10F24BFA3EBD10340EADC001B01C6
:1005500018BF5FEA1C1CE0D1FD2A3FF650AF8B426A
:1005600040EBC25008BF20F0010070470CF0004C77
:100570004CEA50207F32C2BFD2F1FF0340EAC250A2
:10058000704740F400004FF00003013A37E792F063
:10059000000F00F0004C02BF400010F4000F013AC1
:1005A000F9D040EA0C0093F0000F01F0004C02BFBC
:1005B000490011F4000F013BF9D041EA0C0195E725
:1005C0000CEAD15392EA0C0F08D142027FF47DAFBE
:1005D00093EA0C0F7FF470AF084676E793EA0C0FAE
:1005E00004D14B023FF44CAF08466EE730F0004CAC
:1005F00018BF31F0004CCAD130F000427FF45CAF3C
:1006000031F000437FF43CAF5FE700BF4FF0FF3CA9
:1006100006E000BF4FF0010C02E000BF4FF0010CFC
:100620004DF804CD4FEA40024FEA41037FEA226CC5
:1006300018BF7FEA236C11D001B052EA530C18BFE7
:1006400090EA010F58BFB2EB030088BFC81738BF4C
:100650006FEAE17018BF40F0010070477FEA226C3A
:1006600002D15FEA402C05D17FEA236CE4D15FEA36
:10067000412CE1D05DF8040B704700BF844608466A
:100680006146FFE70FB5FFF7C9FF002848BF10F12B
:10069000000F0FBD4DF808EDFFF7F4FF0CBF012070
:1006A00000205DF808FB00BF4DF808EDFFF7EAFFFA
:1006B00034BF012000205DF808FB00BF4DF808EDB5
:1006C000FFF7E0FF94BF012000205DF808FB00BFAA
:1006D0004DF808EDFFF7D2FF94BF012000205DF830
:1006E00008FB00BF4DF808EDFFF7C8FF34BF01203D
:1006F00000205DF808FB00BF42000ED2B2F1FE4FB1
:100700000BD34FF09E03B3EB126209D44FEA0023E0
:1007100043F0004323FA02F070474FF000007047A7
:1007200012F1610F01D1420202D14FF0FF30704748
:100730004FF00000704700BF80B500AF0B210220D2
:1007400000F004FA0221022000F000FA0321022046
:1007500000F0FCF902220021022000F047F80222FA
:100760000121022000F042F80B220821012000F0B4
:100770003DF800F075FA00BF80BD000080B582B082
:1007800000AF0346FB71FB791846FFF79BFD03465C
:1007900007491846FFF79EFE03461946012000F060
:1007A000DFFA00F0D3FA00BF0837BD4680BD00BFB6
:1007B0000000C84280B500AF01220021022000F0F5
:1007C000F1F800220121022000F0ECF800BF80BD0A
:1007D00080B500AF00220021022000F0E3F80022E3
:1007E0000121022000F0DEF800BF80BD80B483B09C
:1007F00000AF0346FB710B46BB7113467B71FB795F
:10080000032B00F08280032B00F3C080012B02D069
:10081000022B3ED0BAE0BB79072B17D85E4B1B6882
:10082000BA7992000F2101FA02F2D24311465A4AD4
:100830000B401360584B1B687979BA79920001FA22
:1008400002F21146544A0B4313609AE0BB79072B1E
:1008500040F29780BB790F2B00F29380BB79083B65
:10086000BB714D4B5B68BA7992000F2101FA02F21D
:10087000D2431146484A0B405360474B5B68797935
:10088000BA79920001FA02F21146434A0B435360CF
:1008900077E0BB79072B17D8404B1B68BA799200D9
:1008A0000F2101FA02F2D24311463C4A0B40136079
:1008B0003A4B1B687979BA79920001FA02F2114633
:1008C000364A0B4313605EE0BB79072B5BD9BB79DB
:1008D0000F2B58D8BB79083BBB71304B5B68BA799A
:1008E00092000F2101FA02F2D24311462B4A0B402B
:1008F00053602A4B5B687979BA79920001FA02F267
:100900001146264A0B4353603DE0BB79072B17D8AD
:10091000234B1B68BA7992000F2101FA02F2D243ED
:1009200011461F4A0B4013601D4B1B687979BA7939
:10093000920001FA02F21146194A0B43136024E0B7
:10094000BB79072B21D9BB790F2B1ED8BB79083B6C
:10095000BB71134B5B68BA7992000F2101FA02F266
:10096000D24311460E4A0B4053600D4B5B687979B8
:10097000BA79920001FA02F21146094A0B43536018
:1009800003E000BF02E000BF00E000BF00BF0C3783
:10099000BD4680BC704700BF00080140000C01400C
:1009A0000010014080B483B000AF0346FB710B46DA
:1009B000BB7113467B71FB79032B40D0032B60DCAA
:1009C000012B02D0022B1DD05BE07B79012B0AD1D9
:1009D0002E4BDB68BA79012101FA02F211462B4A4B
:1009E0000B43D36048E07B79002B45D1274BDB6874
:1009F000BA79012101FA02F2D2431146234A0B408F
:100A0000D36039E07B79012B0AD1214BDB68BA79BD
:100A1000012101FA02F211461D4A0B43D3602DE079
:100A20007B79002B2AD11A4BDB68BA79012101FAB4
:100A300002F2D2431146164A0B40D3601EE07B7986
:100A4000012B0AD1134BDB68BA79012101FA02F2BA
:100A50001146104A0B43D36012E07B79002B0FD173
:100A60000C4BDB68BA79012101FA02F2D24311463C
:100A7000084A0B40D36003E000BF02E000BF00E083
:100A800000BF00BF0C37BD4680BC70470008014066
:100A9000000C01400010014080B485B000AF034657
:100AA0000A46FB711346BB710023FB73FB79032BD2
:100AB0001AD0032B22DC012B02D0022B0AD01DE01E
:100AC000114B9A68BB7922FA03F3DBB203F00103FE
:100AD000FB7313E00D4B9A68BB7922FA03F3DBB288
:100AE00003F00103FB7309E0094B9A68BB7922FA12
:100AF00003F3DBB203F00103FB7300BFFB7B18467B
:100B00001437BD4680BC704700080140000C01400E
:100B10000010014080B400AF0A4B1B68094A43F043
:100B200002031360074B1B68064A43F4E01313608B
:100B3000054B1B68044A43F08073136000BFBD4639
:100B400080BC7047041002400010024080B483B0A3
:100B500000AF03460A46FB711346BB71FB791F2B9E
:100B60002AD8FB79022B1CD0022B25DC002B02D0CB
:100B7000012B0BD020E0134B1B68BA79012101FA3D
:100B800002F211460F4A0B43136015E00E4B1B682F
:100B9000BA79012101FA02F211460B4A0B431360A4
:100BA0000AE00A4B1B68BA79012101FA02F21146E8
:100BB000064A0B43136000BF00BF0C37BD4680BC24
:100BC000704700BF141002401C1002401810024071
:100BD00080B500AF00210120FFF7B8FF02210220FD
:100BE000FFF7B4FF0B2200210120FFF7FFFD0B22CE
:100BF00001210120FFF7FAFD0B2202210120FFF75E
:100C0000F5FD0B2203210120FFF7F0FD00F0DAF8DB
:100C100000BF80BD80B582B000AF03460A46FB71BD
:100C20001346BB80BB881846FFF74CFB03460A49B6
:100C30001846FFF79BFB034608491846FFF78EFA54
:100C400003461A46FB791146184600F037F900BFF3
:100C50000837BD4680BD00BFBDE5083A8FC2F53CF0
:100C600080B500AF334B344A1A60324B10225A60C1
:100C7000304B20229A602F4B4AF6C872DA602D4B17
:100C800000221A612B4B00225A612A4B00229A61E2
:100C9000284800F05FFE294B4FF480521A60274924
:100CA000244801F0CBF8234800F014FF244B002225
:100CB0001A60234B00225A6021491E4801F02AFC89
:100CC000204B70221A601F4B00225A601D4B0022DD
:100CD0009A601C4B0022DA601A4B00221A61194BF1
:100CE00000225A61174B00229A61002215491148CF
:100CF00000F0E2FF144B00221A60134B00225A60EE
:100D0000114B00229A60104B0022DA600E4B002239
:100D10001A610D4B4FF400525A610B4B0022DA61FD
:100D20000949044801F054FC024800F0E1FB00BF0F
:100D300080BD00BF80000020002C0140C8000020C2
:100D4000D8000020E0000020FC00002080B500AFAB
:100D50000021024800F00EFF00BF80BD800000208F
:100D600080B584B000AF03463960FB7139684FF03D
:100D70007E50FFF7F1F903460F491846FFF7F6FAE0
:100D800003464FF07E511846FFF7E6F90346184632
:100D9000FFF7B2FC0346FB81FB79012B08D1FB89ED
:100DA000064A536000220549054800F085FF00BF50
:100DB00000BF1037BD4680BD00C82F47E0000020AF
:100DC0008000002080B586B000AF07F10803002244
:100DD0001A605A609A60DA603B4600221A605A60D4
:100DE000294B4FF080421A60274B10225A60264B45
:100DF00000229A60244B4AF6C872DA60224B002225
:100E00001A61214B80229A611F4800F0A3FD4FF424
:100E10008053BB6007F1080319461B4801F00EF828
:100E2000194800F057FE00233B6000237B603B46DF
:100E30001946154801F06EFB144B70221A60134BD3
:100E400000225A60114B00229A60104B00221A6156
:100E500000220E490C4800F02FFF04220B490A48DB
:100E600000F02AFF08220949074800F025FF0C225C
:100E70000649054800F020FF034800F039FB00BF99
:100E80001837BD4680BD00BF1C0100206401002052
:100E900080B500AF0021084800F06CFE0421064830
:100EA00000F068FE0821044800F064FE0C210248AE
:100EB00000F060FE00BF80BD1C01002080B584B042
:100EC00000AF03463960FB7139684FF07E50FFF781
:100ED00043F903461E491846FFF748FA03464FF008
:100EE0007E511846FFF738F903461846FFF704FC11
:100EF0000346FB81FB89174A5360FB79013B032BB7
:100F000022D801A252F823F0190F0008250F00087B
:100F1000310F00083D0F000800220E490E4800F076
:100F2000CBFE11E004220B490B4800F0C5FE0BE09C
:100F300008220849084800F0BFFE05E00C220549D8
:100F4000054800F0B9FE00BF00BF1037BD4680BDA8
:100F500000C82F47640100201C01002080B500AFAD
:100F6000144B154A1A60134B48225A60114B002249
:100F70009A60104B4FF6FF72DA600E4B00221A6136
:100F80000C4B00229A610B4800F0E4FC0B4B4FF431
:100F900080521A600949074800F050FF084B0022B0
:100FA0001A60074B00225A600549024801F0B2FA64
:100FB00000BF80BD8001002000040040C801002067
:100FC000D801002080B500AF024800F013FD00BF3B
:100FD00080BD00BF8001002080B500AF024800F056
:100FE00053FD00BF80BD00BF8001002080B483B0EE
:100FF00000AF0346FB80044AFB88136000BF0C3738
:10100000BD4680BC704700BF2404004080B400AFE0
:10101000034B1B689BB21846BD4680BC704700BF9F
:101020002404004080B588B000AF7860504BBB61AD
:101030004FF08F41B869FFF799F903467B617969F1
:101040007868FFF745FB0346002B6AD0796978681A
:10105000FFF740FA03461846FFF74EFB03463B6195
:101060000023FB613869FFF729F9034679691846BF
:10107000FFF77CF9034619467868FFF76DF80346D9
:10108000FB600020FFF7B2FF13E0FFF79BFF00BFFC
:10109000384B1B6803F00103002BF9D0FFF79CFFCE
:1010A000344B1B68334A23F001031360FB6901339F
:1010B000FB61FA693B699A42E7D34FF00001F86897
:1010C000FFF7E8FA0346002B00D04DE02A49F86804
:1010D000FFF700FA03464FF08F411846FFF746F935
:1010E000034619464FF08F40FFF736F8034618467F
:1010F000FFF702FB03469BB21846FFF777FFFFF7A7
:1011000061FF00BF1B4B1B6803F00103002BF9D0EC
:10111000FFF762FF174B1B68164A23F001031360A9
:1011200022E079687869FFF717F80346B96918462D
:10113000FFF7D0F903461846FFF7DEFA03469BB2E5
:101140001846FFF753FFFFF73DFF00BF094B1B6831
:1011500003F00103002BF9D0FFF73EFF054B1B689E
:10116000044A23F00103136000BF2037BD4680BD51
:10117000BD370636100400400000204180B500AFA6
:1011800001210120FFF7E2FC02210220FFF7DEFC33
:10119000FFF7E4FE022204210120FFF727FB0822CB
:1011A00005210120FFF722FB002205210120FFF786
:1011B000F9FB00BF80BD000080B500AF0122042113
:1011C0000120FFF7EFFB1E48FFF72CFF0022042150
:1011D0000120FFF7E7FB00BF05210120FFF75CFCC2
:1011E0000346002BF8D00020FFF700FFFFF7EAFED0
:1011F00007E0FFF70BFF03461A4642F6F4539A4204
:1012000007D805210120FFF747FC0346002BF0D14A
:1012100000E000BFFFF7E0FEFFF7F8FE03461846C8
:10122000FFF750F8034607491846FFF79FF80346B3
:1012300005491846FFF79AF80346184680BD00BFD7
:1012400082A87B370000AA43BD37863580B400AF43
:10125000084B42F220421A60074B40F6A6621A6021
:10126000044B1B68034A43F00403136000BFBD46F0
:1012700080BC70470C3801400838014080B500AF91
:10128000FFF748FC02210220FFF760FC0321022047
:10129000FFF75CFC0E210220FFF758FC0B21022017
:1012A000FFF754FC00210120FFF750FC0121012031
:1012B000FFF74CFC04220A210120FFF797FAFFF701
:1012C000C5FFFFF739FAFFF783FCFFF757FF5A21F5
:1012D0000120FFF79FFC00BF80BD000080B582B0F9
:1012E00000AFC8237B6001F027FD03463B60FFF79A
:1012F00063FF0346034A13603B467968184601F0D2
:10130000A3FBF4E70000002080B582B000AF6423A7
:101310007B6001F011FD03463B60344B1B684FF0CE
:101320007E511846FFF7CAF90346002B09D0304B0F
:1013300093F90030DBB20A3BDBB25AB22C4B1A7085
:1013400016E02A4B1B684FF07A511846FFF7B6F9A2
:101350000346002B03D0264B00221A7008E0244BD2
:1013600093F90030DBB20533DBB25AB2204B1A706E
:101370001F4B93F900303C2B03DD1D4B3C221A70B0
:1013800007E01B4B93F90030002B02DA184B0022C8
:101390001A70174B93F90030002B09D0FFF70AFAA7
:1013A000134B93F90030DBB21846FFF7E7F901E081
:1013B000FFF70EFA0F4B1B78DAB20F4B1B78DBB23C
:1013C0009A420CD00B4B1B78DAB20B4B1A700A4BBB
:1013D0001B78DBB29BB219460120FFF71BFC3B4692
:1013E0007968184601F030FB97E700BF0000002045
:1013F00004000020060000200500002080B582B017
:1014000002AFFFF73BFFFFF743FD1E20FFF7B6F9E2
:10141000FFF7D0F9002301930423009300238022D7
:101420000849094801F0D4F90023019303230093EC
:10143000002380220549064801F0CAF901F082FB29
:10144000FEE700BFB0380008DD120008C43800080D
:101450000913000880B485B000AF78607B681B6812
:10146000124A93420CD1124B9B69114A43F4006318
:1014700093610F4B9B6903F40063FB60FB6810E012
:101480007B681B68B3F1804F0BD1094BDB69084ABD
:1014900043F00103D361064BDB6903F00103BB603A
:1014A000BB6800BF1437BD4680BC7047002C0140AC
:1014B0000010024080B485B000AF78607B681B6884
:1014C000094A93420BD1094BDB69084A43F00203F6
:1014D000D361064BDB6903F00203FB60FB6800BFCE
:1014E0001437BD4680BC7047000400400010024025
:1014F00080B588B000AF786007F1100300221A6051
:101500005A609A60DA607B681B681F4A934219D15F
:101510001E4B9B691D4A43F0040393611B4B9B695F
:1015200003F00403FB60FB684FF480733B6102230C
:101530007B610223FB6107F110031946144800F098
:1015400085F81CE07B681B68B3F1804F17D10F4B07
:101550009B690E4A43F0040393610C4B9B6903F0B3
:101560000403BB60BB680F233B6102237B61022342
:10157000FB6107F110031946054800F067F800BF4A
:101580002037BD4680BD00BF002C01400010024046
:101590000008014080B400AFFEE780B400AFFEE772
:1015A00080B400AFFEE780B400AFFEE780B400AFC8
:1015B000FEE780B400AF00BFBD4680BC704780B579
:1015C00000AF00F031F801F01FFF00BF80BD80B414
:1015D00000AF00BFBD4680BC70470000FFF7F7FFBB
:1015E0000B480C490C4A002302E0D458C450043381
:1015F000C4188C42F9D3094A094C002301E0136056
:101600000432A242FBD302F023F9FFF7F7FE704742
:101610000000002064000020EC3800086400002076
:101620003C100020FEE7000080B400AF054B1B78A3
:101630001A46054B1B681344034A136000BFBD469E
:1016400080BC70470C000020E001002080B48BB00B
:1016500000AF7860396000237B6200233B6269E160
:1016600001227B6A02FA03F3FB613B681B68FA699B
:101670001340BB61BA69FB699A4240F058813B68EC
:101680005B689A4A93425ED0984A934275D8984ACA
:10169000934258D0964A93426FD8964A934252D07A
:1016A000944A934269D8944A93424CD0924A9342C6
:1016B00063D8924A934246D0904A93425DD8122B07
:1016C0002AD8122B59D801A252F823F04717000844
:1016D0002117000833170008751700087B1700084A
:1016E0007B1700087B1700087B1700087B17000892
:1016F0007B1700087B1700087B1700087B17000882
:101700007B1700087B1700087B1700087B17000871
:10171000291700083D170008794A934213D02CE09E
:101720003B68DB683B6229E03B68DB6804333B6273
:1017300024E03B68DB6808333B621FE03B68DB6802
:101740000C333B621AE03B689B68002B02D10423F8
:101750003B6213E03B689B68012B05D108233B6289
:101760007B68FA691A6109E008233B627B68FA69C1
:101770005A6103E000233B6200E000BFBB69FF2B1E
:1017800001D87B6801E07B6804337B61BB69FF2B78
:1017900002D87B6A9B0002E07B6A083B9B003B61AE
:1017A0007B691A680F213B6901FA03F3DB431A4096
:1017B000396A3B6901FA03F31A437B691A603B6893
:1017C0005B6803F08053002B00F0B1804D4B9B69A8
:1017D0004C4A43F0010393614A4B9B6903F00103B8
:1017E000BB60BB68484A7B6A9B08023352F82330CF
:1017F000FB607B6A03F003039B000F2202FA03F3F2
:10180000DB43FA681340FB607B68404A934213D085
:101810007B683F4A93420DD07B683E4A934207D093
:101820007B683D4A934201D1032306E0042304E090
:10183000022302E0012300E000237A6A02F003029F
:1018400092009340FA681343FB602F497B6A9B0820
:101850000233FA6841F823203B685B6803F4801385
:10186000002B06D02D4B9A682C49BB6913438B6023
:1018700006E02A4B9A68BB69DB43284913408B601A
:101880003B685B6803F40013002B06D0234BDA6837
:101890002249BB691343CB6006E0204BDA68BB6981
:1018A000DB431E491340CB603B685B6803F40033A5
:1018B000002B06D0194B5A681849BB6913434B607B
:1018C00006E0164B5A68BB69DB43144913404B6072
:1018D0003B685B6803F48033002B21D00F4B1A6800
:1018E0000E49BB6913430B6021E000BF00003210BA
:1018F0000000311000002210000021100000121022
:1019000000001110001002400000014000080140DA
:10191000000C01400010014000140140000401408F
:101920000B4B1A68BB69DB43094913400B607B6AA8
:1019300001337B623B681A687B6A22FA03F3002B4F
:101940007FF48EAE00BF00BF2C37BD4680BC704711
:101950000004014080B582B000AF78607B68002B46
:1019600001D1012341E07B6893F83D30DBB2002BCD
:1019700006D17B68002283F83C207868FFF79AFD47
:101980007B68022283F83D207B681A687B680433F9
:101990001946104600F01AFB7B68012283F84620A6
:1019A0007B68012283F83E207B68012283F83F2078
:1019B0007B68012283F840207B68012283F8412064
:1019C0007B68012283F842207B68012283F8432050
:1019D0007B68012283F844207B68012283F845203C
:1019E0007B68012283F83D20002318460837BD4656
:1019F00080BD000080B485B000AF78607B6893F84C
:101A00003D30DBB2012B01D0012332E07B680222A2
:101A100083F83D207B681B68184A93420ED07B6890
:101A20001B68B3F1804F09D07B681B68144A93424E
:101A300004D07B681B68134A934211D17B681B68F2
:101A40009B6803F00703FB60FB68062B10D07B68E4
:101A50001B681A687B681B6842F001021A6007E085
:101A60007B681B681A687B681B6842F001021A6079
:101A7000002318461437BD4680BC7047002C014037
:101A8000000400400008004080B483B000AF7860DC
:101A90007B681B681A6A41F211131340002B0FD1A7
:101AA0007B681B681A6A40F244431340002B07D13D
:101AB0007B681B681A687B681B6822F001021A6049
:101AC0007B68012283F83D20002318460C37BD4671
:101AD00080BC704780B582B000AF78607B68002B17
:101AE00001D1012341E07B6893F83D30DBB2002B4C
:101AF00006D17B68002283F83C207868FFF7AAFCB7
:101B00007B68022283F83D207B681A687B68043377
:101B10001946104600F05AFA7B68012283F84620E5
:101B20007B68012283F83E207B68012283F83F20F6
:101B30007B68012283F840207B68012283F84120E2
:101B40007B68012283F842207B68012283F84320CE
:101B50007B68012283F844207B68012283F84520BA
:101B60007B68012283F83D20002318460837BD46D4
:101B700080BD000080B584B000AF786039603B68FC
:101B8000002B09D17B6893F83E30DBB2012B14BFE8
:101B900001230023DBB222E03B68042B09D17B68E0
:101BA00093F83F30DBB2012B14BF01230023DBB2DB
:101BB00015E03B68082B09D17B6893F84030DBB215
:101BC000012B14BF01230023DBB208E07B6893F8EC
:101BD0004130DBB2012B14BF01230023DBB2002B09
:101BE00001D001235EE03B68002B04D17B68022218
:101BF00083F83E2013E03B68042B04D17B6802226B
:101C000083F83F200BE03B68082B04D17B6802225D
:101C100083F8402003E07B68022283F841207B6840
:101C20001B6801223968184600F050FC7B681B686D
:101C30001E4A934207D17B681B685A6C7B681B68FD
:101C400042F400425A647B681B68184A93420ED0E3
:101C50007B681B68B3F1804F09D07B681B68144A0E
:101C6000934204D07B681B68124A934211D17B686F
:101C70001B689B6803F00703FB60FB68062B10D012
:101C80007B681B681A687B681B6842F001021A6057
:101C900007E07B681B681A687B681B6842F00102DA
:101CA0001A60002318461037BD4680BD002C014045
:101CB000000400400008004080B586B000AFF86026
:101CC000B9607A600023FB75FB6893F83C30012B08
:101CD00001D10223AEE0FB68012283F83C207B683F
:101CE0000C2B00F29F8001A252F823F0211D000866
:101CF000251E0008251E0008251E0008611D00087D
:101D0000251E0008251E0008251E0008A31D00082A
:101D1000251E0008251E0008251E0008E31D0008DA
:101D2000FB681B68B968184600F0B2F9FB681B68CD
:101D30009A69FB681B6842F008029A61FB681B689D
:101D40009A69FB681B6822F004029A61FB681B68B1
:101D50009969BB681A69FB681B680A439A6164E069
:101D6000FB681B68B968184600F0F8F9FB681B6847
:101D70009A69FB681B6842F400629A61FB681B6801
:101D80009A69FB681B6822F480629A61FB681B6891
:101D90009969BB681B691A02FB681B680A439A6150
:101DA00043E0FB681B68B968184600F041FAFB681D
:101DB0001B68DA69FB681B6842F00802DA61FB689D
:101DC0001B68DA69FB681B6822F00402DA61FB68B1
:101DD0001B68D969BB681A69FB681B680A43DA612A
:101DE00023E0FB681B68B968184600F08BFAFB68B3
:101DF0001B68DA69FB681B6842F40062DA61FB6801
:101E00001B68DA69FB681B6822F48062DA61FB6890
:101E10001B68D969BB681B691A02FB681B680A4307
:101E2000DA6102E00123FB7500BFFB68002283F842
:101E30003C20FB7D18461837BD4680BD80B584B078
:101E400000AF786039600023FB737B6893F83C3007
:101E5000012B01D10223B4E07B68012283F83C20EE
:101E60007B68022283F83D207B681B689B68BB600F
:101E7000BB6823F07703BB60BB6823F47F43BB6080
:101E80007B681B68BA689A603B681B68B3F5005FA3
:101E90003ED0B3F5005F00F28780B3F5805F00F0BD
:101EA0008680B3F5805F7FD8702B1AD0702B7BD8DB
:101EB000602B50D0602B77D8502B3CD0502B73D850
:101EC000402B58D0402B6FD8302B64D0302B6BD8A0
:101ED000202B60D0202B67D8002B5CD0102B5AD041
:101EE00062E07B6818683B6899683B685A683B68A1
:101EF000DB6800F0CCFA7B681B689B68BB60BB6842
:101F000043F07703BB607B681B68BA689A604FE058
:101F10007B6818683B6899683B685A683B68DB686F
:101F200000F0B5FA7B681B689A687B681B6842F40E
:101F300080429A603CE07B6818683B6859683B685F
:101F4000DB681A4600F02CFA7B681B6850211846A3
:101F500000F083FA2CE07B6818683B6859683B689E
:101F6000DB681A4600F04AFA7B681B686021184655
:101F700000F073FA1CE07B6818683B6859683B689E
:101F8000DB681A4600F00CFA7B681B684021184693
:101F900000F063FA0CE07B681A683B681B6819461E
:101FA000104600F05AFA03E00123FB7300E000BF83
:101FB0007B68012283F83D207B68002283F83C2067
:101FC000FB7B18461037BD4680BD000080B485B04D
:101FD00000AF786039607B681B68FB607B68294ACA
:101FE00093420BD07B68B3F1804F07D07B68264AC1
:101FF000934203D07B68254A934208D1FB6823F0C3
:102000007003FB603B685B68FA681343FB607B68A6
:102010001C4A93420BD07B68B3F1804F07D07B689A
:10202000194A934203D07B68184A934208D1FB684F
:1020300023F44073FB603B68DB68FA681343FB6082
:10204000FB6823F080023B685B691343FB607B689D
:10205000FA681A603B689A687B68DA623B681A68BB
:102060007B689A627B68074A934203D13B681A698E
:102070007B681A637B6801225A6100BF1437BD4632
:1020800080BC7047002C0140000400400008004064
:1020900080B487B000AF786039607B681B6A7B6171
:1020A0007B681B6A23F001027B681A627B685B68AD
:1020B0003B617B689B69FB60FB6823F07003FB60FE
:1020C000FB6823F00303FB603B681B68FA6813435B
:1020D000FB607B6923F002037B613B689B687A6944
:1020E00013437B617B681C4A93420CD17B6923F0CC
:1020F00008037B613B68DB687A6913437B617B691A
:1021000023F004037B617B68134A934211D13B693E
:1021100023F480733B613B6923F400733B613B68AC
:102120005B693A6913433B613B689B693A691343B6
:102130003B617B683A695A607B68FA689A613B68E0
:102140005A687B685A637B687A691A6200BF1C37D9
:10215000BD4680BC704700BF002C014080B487B0F2
:1021600000AF786039607B681B6A7B617B681B6AA3
:1021700023F010027B681A627B685B683B617B68B6
:102180009B69FB60FB6823F4E043FB60FB6823F47E
:102190004073FB603B681B681B02FA681343FB60DB
:1021A0007B6923F020037B613B689B681B017A6994
:1021B00013437B617B681D4A93420DD17B6923F0F9
:1021C00080037B613B68DB681B017A6913437B6199
:1021D0007B6923F040037B617B68144A934213D1EF
:1021E0003B6923F480633B613B6923F400633B61FB
:1021F0003B685B699B003A6913433B613B689B69A1
:102200009B003A6913433B617B683A695A607B687B
:10221000FA689A613B685A687B689A637B687A6956
:102220001A6200BF1C37BD4680BC7047002C0140BD
:1022300080B487B000AF786039607B681B6A7B61CF
:102240007B681B6A23F480727B681A627B685B6818
:102250003B617B68DB69FB60FB6823F07003FB601C
:10226000FB6823F00303FB603B681B68FA681343B9
:10227000FB607B6923F400737B613B689B681B02F6
:102280007A6913437B617B681D4A93420DD17B6958
:1022900023F400637B613B68DB681B027A691343AC
:1022A0007B617B6923F480637B617B68144A934282
:1022B00013D13B6923F480533B613B6923F4005302
:1022C0003B613B685B691B013A6913433B613B68B7
:1022D0009B691B013A6913433B617B683A695A6009
:1022E0007B68FA68DA613B685A687B68DA637B6806
:1022F0007A691A6200BF1C37BD4680BC704700BFB8
:10230000002C014080B487B000AF786039607B68F2
:102310001B6A3B617B681B6A23F480527B681A62EC
:102320007B685B687B617B68DB69FB60FB6823F42F
:10233000E043FB60FB6823F44073FB603B681B6871
:102340001B02FA681343FB603B6923F400533B61B3
:102350003B689B681B033A6913433B617B680F4AE8
:10236000934209D17B6923F480437B613B685B69BD
:102370009B017A6913437B617B687A695A607B6849
:10238000FA68DA613B685A687B681A647B683A6964
:102390001A6200BF1C37BD4680BC7047002C01404C
:1023A00080B487B000AFF860B9607A60FB681B6AE0
:1023B0007B61FB681B6A23F00102FB681A62FB6801
:1023C0009B693B613B6923F0F0033B617B681B0128
:1023D0003A6913433B617B6923F00A037B617A69A5
:1023E000BB6813437B61FB683A699A61FB687A6951
:1023F0001A6200BF1C37BD4680BC704780B487B0EE
:1024000000AFF860B9607A60FB681B6A7B61FB68AB
:102410001B6A23F01002FB681A62FB689B693B6130
:102420003B6923F470433B617B681B033A691343A8
:102430003B617B6923F0A0037B61BB681B017A6968
:1024400013437B61FB683A699A61FB687A691A6297
:1024500000BF1C37BD4680BC704780B485B000AF5C
:10246000786039607B689B68FB60FB6823F07003D1
:10247000FB603A68FB68134343F00703FB607B682B
:10248000FA689A6000BF1437BD4680BC704780B4BC
:1024900087B000AFF860B9607A603B60FB689B680A
:1024A0007B617B6923F47F437B613B681A027B6815
:1024B0001A43BB6813437A6913437B61FB687A69EB
:1024C0009A6000BF1C37BD4680BC704780B487B09F
:1024D00000AFF860B9607A60BB6803F01F030122A7
:1024E00002FA03F37B61FB681A6A7B69DB431A40DB
:1024F000FB681A62FB681A6ABB6803F01F037968FD
:1025000001FA03F31A43FB681A6200BF1C37BD4689
:1025100080BC704780B485B000AF786039607B685C
:1025200093F83C30012B01D1022346E07B68012265
:1025300083F83C207B68022283F83D207B681B687F
:102540005B68FB607B681B689B68BB60FB6823F073
:102550007003FB603B681B68FA681343FB607B6891
:102560001B68FA685A607B681B68164A93420ED053
:102570007B681B68B3F1804F09D07B681B68124AE7
:10258000934204D07B681B68104A93420CD1BB680D
:1025900023F08003BB603B685B68BA681343BB6091
:1025A0007B681B68BA689A607B68012283F83D20CB
:1025B0007B68002283F83C20002318461437BD4670
:1025C00080BC7047002C014000040040000800401F
:1025D00080B485B000AF786039600023FB607B6811
:1025E00093F83C30012B01D102233DE07B680122AE
:1025F00083F83C20FB6823F0FF023B68DB68134351
:10260000FB60FB6823F440723B689B681343FB60EC
:10261000FB6823F480623B685B681343FB60FB68E4
:1026200023F400623B681B681343FB60FB6823F4E0
:1026300080523B681B691343FB60FB6823F4005224
:102640003B685B691343FB60FB6823F480423B6893
:10265000DB691343FB607B681B68FA685A647B681C
:10266000002283F83C20002318461437BD4680BC66
:10267000704780B483B000AF78607B6803F10802D4
:102680007B685A607B684FF0FF329A607B6803F189
:1026900008027B68DA607B6803F108027B681A61D4
:1026A0007B6800221A6000BF0C37BD4680BC7047B3
:1026B00080B483B000AF78607B6800221A6100BFED
:1026C0000C37BD4680BC704780B485B000AF7860E1
:1026D00039607B685B68FB603B68FA685A60FB683E
:1026E0009A683B689A60FB689B683A685A60FB6826
:1026F0003A689A603B687A681A617B681B685A1C62
:102700007B681A6000BF1437BD4680BC704780B438
:1027100085B000AF786039603B681B68BB60BB6800
:10272000B3F1FF3F03D17B681B69FB600CE07B6862
:102730000833FB6002E0FB685B68FB60FB685B687A
:102740001B68BA689A42F6D2FB685A683B685A60BE
:102750003B685B683A689A603B68FA689A60FB6815
:102760003A685A603B687A681A617B681B685A1C31
:102770007B681A6000BF1437BD4680BC704780B4C8
:1027800085B000AF78607B681B69FB607B685B6825
:102790007A6892689A607B689B687A6852685A6027
:1027A000FB685B687A689A4203D17B689A68FB6829
:1027B0005A607B6800221A61FB681B685A1EFB681E
:1027C0001A60FB681B6818461437BD4680BC70470A
:1027D00080B58CB004AFF860B9603B601346FB80F5
:1027E000FB889B00184600F053FE78617B69002B44
:1027F0000ED0982000F04CFEF861FB69002B03D04E
:10280000FB697A691A6305E0786900F005FF01E069
:102810000023FB61FB69002B13D0FA88002303938C
:10282000FB690293FB6A0193BB6A00933B68B9683A
:10283000F86800F00FF8F86900F09CF80123BB611C
:1028400002E04FF0FF33BB61BB6918462037BD463D
:1028500080BD000080B588B000AFF860B9607A60D4
:102860003B603B6B1A6B7B6803F18043013B9B0031
:102870001344BB61BB6923F00703BB61BB6903F071
:102880000703002B0AD04FF0500383F31188BFF3E6
:102890006F8FBFF34F8F7B6100BFFEE70023FB61AB
:1028A00012E0BA68FB69134419783A6BFB69134468
:1028B00034330A461A70BA68FB6913441B78002B3C
:1028C00006D0FB690133FB61FB690F2BE9D900E0FE
:1028D00000BF3B6B002283F84320BB6A062B01D963
:1028E0000623BB623B6BBA6ADA623B6B0433184661
:1028F000FFF7DEFE3B6B18331846FFF7D9FE3B6B44
:102900003A6B1A61BB6AC3F107023B6B9A613B6B7E
:102910003A6B5A623B6B0022C3F890203B6B00225B
:1029200083F894203B6B44334C220021184600F07E
:1029300087FF3B6B0C4A9A643B6B0C4ADA643B6B37
:102940000B4A1A653A68F968B86900F0EFFB02466D
:102950003B6B1A60FB6A002B02D0FB6A3A6B1A6071
:1029600000BF2037BD4680BD040F00206C0F002043
:10297000D40F002080B582B000AF786000F0C6FCB4
:102980002A4B1B680133294A1360294B1B68002B13
:1029900009D1274A7B681360244B1B68012B10D197
:1029A00000F010FB0DE0234B1B68002B09D1204BDE
:1029B0001B68DA6A7B68DB6A9A4202D81C4A7B6829
:1029C00013601D4B1B6801331B4A13607B68DB6A75
:1029D00001229A40194B1B681343184A13607B6805
:1029E000DA6A13469B0013449B00154A1A447B681D
:1029F000043319461046FFF767FE00F0B7FC0D4B95
:102A00001B68002B0ED00A4B1B68DA6A7B68DB6AF6
:102A10009A4207D20B4B4FF080521A60BFF34F8F90
:102A2000BFF36F8F00BF0837BD4680BDB8020020DE
:102A3000E4010020C4020020D4020020C0020020D3
:102A4000E801002004ED00E080B58AB000AF7860B6
:102A5000396000237B627B68002B0AD14FF0500362
:102A600083F31188BFF36F8FBFF34F8F7B6100BF7C
:102A7000FEE73B68002B0AD14FF0500383F3118827
:102A8000BFF36F8FBFF34F8F3B6100BFFEE72A4B51
:102A90001B68002B0AD04FF0500383F31188BFF35B
:102AA0006F8FBFF34F8FFB6000BFFEE700F09AF817
:102AB000224B1B683B627B681B683A681344FB61CE
:102AC0007B681B683A6A9A420BD27B681B68FA697A
:102AD0009A4211D2FA693B6A9A420DD901237B626C
:102AE0000AE07B681B68FA699A4203D3FA693B6A79
:102AF0009A4201D901237B627B68FA691A607B6A7A
:102B0000002B06D0FA693B6AD31A0021184600F060
:102B1000B9FA00F075F8B861BB69002B07D1084B12
:102B20004FF080521A60BFF34F8FBFF36F8F00BF1B
:102B30002837BD4680BD00BFE0020020BC02002057
:102B400004ED00E080B586B002AF1E4B0193002378
:102B50000093002380221C491C48FFF739FEF860CF
:102B6000FB68012B1BD14FF0500383F31188BFF397
:102B70006F8FBFF34F8FBB6000BF154B1B68443393
:102B8000144A1360144B4FF0FF321A60134B0122AA
:102B90001A60134B00221A6000F046FB0EE0FB683F
:102BA000B3F1FF3F0AD14FF0500383F31188BFF315
:102BB0006F8FBFF34F8F7B6000BFFEE700BF103702
:102BC000BD4680BDDC020020DC380008952F0008DF
:102BD000E401002060000020D8020020C402002090
:102BE000BC02002080B400AF044B1B680133034AD1
:102BF000136000BFBD4680BC704700BFE0020020EC
:102C000080B584B000AF0023FB600023BB60414B64
:102C10001B68002B0AD14FF0500383F31188BFF3D8
:102C20006F8FBFF34F8F3B6000BFFEE700F06EFB7E
:102C3000384B1B68013B374A1360364B1B68002B2F
:102C400061D1354B1B68002B5DD02EE0334BDB6828
:102C5000DB68FB60FB6818331846FFF790FDFB68E4
:102C600004331846FFF78BFDFB68DB6A01229A40AC
:102C70002B4B1B6813432A4A1360FB68DA6A13461E
:102C80009B0013449B00274A1A44FB6804331946EF
:102C90001046FFF719FDFB68DA6A234B1B68DB6AF5
:102CA0009A4202D3214B01221A601C4B1B68002B55
:102CB000CCD1FB68002B01D000F0C0F91C4B1B6885
:102CC0007B607B68002B10D000F044F80346002B9B
:102CD00002D0164B01221A607B68013B7B607B6847
:102CE000002BF1D1124B00221A60104B1B68002BF5
:102CF00009D00123BB600F4B4FF080521A60BFF325
:102D00004F8FBFF36F8F00F031FBBB681846103751
:102D1000BD4680BDE0020020B8020020A4020020D1
:102D2000C0020020E8010020E4010020CC020020C5
:102D3000C802002004ED00E080B483B000AF044B73
:102D40001B687B607B6818460C37BD4680BC7047AB
:102D5000BC02002080B586B000AF00237B61514BE0
:102D60001B68002B40F08D804F4B1B6801333B618B
:102D70004D4A3B6913603B69002B20D14B4B1B68CC
:102D80001B68002B0AD04FF0500383F31188BFF368
:102D90006F8FBFF34F8F3B6000BFFEE7434B1B6855
:102DA000FB60434B1B68414A1360414AFB68136058
:102DB000404B1B6801333F4A136000F03FF93E4B24
:102DC0001B683A699A424DD3384B1B681B68002B2D
:102DD00001D1012300E00023002B04D0364B4FF03B
:102DE000FF321A603EE0314B1B68DB68DB68BB607A
:102DF000BB685B687B603A697B689A4203D22E4A63
:102E00007B6813602EE0BB6804331846FFF7B7FCFD
:102E1000BB689B6A002B04D0BB6818331846FFF7C9
:102E2000AEFCBB68DB6A01229A40244B1B6813434B
:102E3000224A1360BB68DA6A13469B0013449B0066
:102E40001F4A1A44BB68043319461046FFF73CFC7E
:102E5000BB68DA6A1B4B1B68DB6A9A42B4D3012356
:102E60007B61B1E7174B1B68DA6A154913469B0073
:102E700013449B000B441B68012B07D901237B6182
:102E800004E0114B1B6801330F4A13600F4B1B68A2
:102E9000002B01D001237B617B6918461837BD46A2
:102EA00080BD00BFE0020020BC0200209C02002088
:102EB000A0020020D0020020D8020020C002002082
:102EC000E8010020E4010020C8020020CC0200201C
:102ED00080B487B000AF294B1B68002B03D0284B70
:102EE00001221A6044E0264B00221A60254B1B6821
:102EF000FB60FB68B3FA83F3FB72FB7AC3F11F0339
:102F00007B6121497A6913469B0013449B000B4463
:102F10001B68002B0AD14FF0500383F31188BFF3D5
:102F20006F8FBFF34F8F7B6000BFFEE77A69134658
:102F30009B0013449B00144A13443B613B695B684C
:102F40005A683B695A603B695A683B6908339A4240
:102F500004D13B695B685A683B695A603B695B68AE
:102F6000DB680A4A1360094B1B684433084A136044
:102F700000BF1C37BD4680BC704700BFE002002088
:102F8000CC020020C0020020E8010020E401002063
:102F90006000002080B582B000AF786000F048F893
:102FA000064B1B68012BF9D9054B4FF080521A6074
:102FB000BFF34F8FBFF36F8FF0E700BFE801002032
:102FC00004ED00E080B582B000AF00237B600CE030
:102FD0007A6813469B0013449B000F4A134418461B
:102FE000FFF747FB7B6801337B607B68062BEFD9DB
:102FF0000A48FFF73EFB0A48FFF73BFB0948FFF78B
:1030000038FB094B054A1A60084B054A1A6000BF95
:103010000837BD4680BD00BFE801002074020020D3
:1030200088020020A40200209C020020A0020020B0
:1030300080B400AF00BFBD4680BC704780B483B091
:1030400000AF0E4B1B681B68002B01D1012300E071
:103050000023002B04D00A4B4FF0FF321A6008E027
:10306000064B1B68DB68DB687B607B685B68044A37
:10307000136000BF0C37BD4680BC70479C02002027
:10308000D802002080B584B000AF78603960214B51
:103090001B68FB60204B1B6804331846FFF76FFB6F
:1030A0000346002B0BD11C4B1B68DB6A012202FA82
:1030B00003F3DA43194B1B681340184A1360FA688C
:1030C0007B681344BB60144B1B68BA685A60BA68CB
:1030D000FB689A4209D2124B1A680F4B1B680433E3
:1030E00019461046FFF713FB10E00E4B1A680A4B07
:1030F0001B68043319461046FFF709FB0A4B1B688F
:10310000BA689A4202D2084ABB68136000BF1037FF
:10311000BD4680BDBC020020E4010020C0020020AA
:10312000A00200209C020020D802002080B485B0BC
:1031300000AFF860B9607A60FB68043BFB60FB6835
:103140004FF080721A60FB68043BFB60BB6823F0A1
:103150000102FB681A60FB68043BFB60084AFB68DD
:103160001A60FB68143BFB607A68FB681A60FB68B6
:10317000203BFB60FB6818461437BD4680BC704797
:103180008531000880B485B000AF00237B60124B0E
:103190001B68B3F1FF3F0AD04FF0500383F311884F
:1031A000BFF36F8FBFF34F8FFB6000BFFEE74FF0A1
:1031B000500383F31188BFF36F8FBFF34F8FBB6052
:1031C00000BF00BF7B68002BFCD000BF00BF1437DE
:1031D000BD4680BC704700BF10000020000000000A
:1031E000074B19680868B0E8F00F80F30988BFF34F
:1031F0006F8F4FF0000080F311884EF00D0E704776
:10320000E401002000BF00BF06480068006880F3AA
:10321000088862B661B6BFF34F8FBFF36F8F00DFD0
:1032200000BF00BF08ED00E080B584B000AF324BB6
:10323000FB60FB681B78DBB27B60FB68FF221A70C7
:10324000FB681B78DBB2FB70FB78DBB203F050034A
:10325000DAB22A4B1A702A4B07221A6009E0284B6F
:103260001B68013B264A1360FB78DBB25B00DBB2D4
:10327000FB70FB78DBB203F08003802BEFD0204B98
:103280001B68C3F10703042B0AD04FF0500383F3EC
:103290001188BFF36F8FBFF34F8FBB6000BFFEE796
:1032A000174B1B681B02164A1360154B1B6803F46F
:1032B000E063134A13607B68DAB2FB681A70114B43
:1032C0001B68104A43F4700313600E4B1B680D4AD1
:1032D00043F07043136000F0B9F80B4B00221A6002
:1032E000FFF792FFFFF7F4FDFFF74CFF00231846AE
:1032F0001037BD4680BD00BF00E400E0E4020020BE
:10330000E802002020ED00E01000002080B483B02F
:1033100000AF4FF0500383F31188BFF36F8FBFF3FB
:103320004F8F7B6000BF0F4B1B6801330D4A13604A
:103330000C4B1B68012B0FD10B4B1B68DBB2002B16
:103340000AD04FF0500383F31188BFF36F8FBFF3A0
:103350004F8F3B6000BFFEE700BF0C37BD4680BC0F
:10336000704700BF1000002004ED00E080B483B07F
:1033700000AF114B1B68002B0AD14FF0500383F3B1
:103380001188BFF36F8FBFF34F8F7B6000BFFEE7E5
:10339000094B1B68013B084A1360074B1B68002B55
:1033A00005D100233B603B6883F3118800BF00BF59
:1033B0000C37BD4680BC70471000002000000000A4
:1033C000EFF30980BFF36F8F0D4B1A6820E9F00F00
:1033D00010602DE908404FF0500080F31188FFF78E
:1033E00077FD4FF0000080F31188BDE808401968B0
:1033F0000868B0E8F00F80F30988BFF36F8F70475B
:10340000E401002000BF00BF80B582B000AF4FF0E4
:10341000500383F31188BFF36F8FBFF34F8F7B602F
:1034200000BFFFF797FC0346002B03D0064B4FF07D
:1034300080521A6000233B603B6883F3118800BF11
:1034400000BF0837BD4680BD04ED00E080B400AF8A
:103450000A4B00221A600A4B00221A60094B1B68B3
:10346000094AA2FB03239B09084A013B1360034B53
:1034700007221A6000BFBD4680BC704710E000E024
:1034800018E000E008000020D34D621014E000E0D6
:1034900080B58AB000AF78600023FB61FFF7A2FB24
:1034A000584B1B68002B01D100F010F9564B1A68DD
:1034B0007B681340002B40F08E807B68002B1DD072
:1034C00008227B6813447B607B6803F00703002BB2
:1034D00014D07B6823F0070308337B607B6803F01C
:1034E0000703002B0AD04FF0500383F31188BFF37A
:1034F0006F8FBFF34F8F7B6100BFFEE77B68002BB0
:1035000069D0424B1B687A689A4264D8404B3B6250
:103510003F4B1B687B6204E07B6A3B627B6A1B68F3
:103520007B627B6A5B687A689A4203D97B6A1B6814
:10353000002BF1D1334B1B687A6A9A424BD03B6A1D
:103540001B6808221344FB617B6A1A683B6A1A6095
:103550007B6A5A687B68D21A08235B009A421FD99B
:103560007A6A7B681344BB61BB6903F00703002BD5
:103570000AD04FF0500383F31188BFF36F8FBFF36E
:103580004F8F3B6100BFFEE77B6A5A687B68D21AA7
:10359000BB695A607B6A7A685A60B86900F0F8F8CB
:1035A0001A4B1A687B6A5B68D31A184A1360174B68
:1035B0001A68184B1B689A4203D2144B1B68154AB1
:1035C00013607B6A5A68104B1B681A437B6A5A6007
:1035D0007B6A00221A60FFF713FBFB6903F0070305
:1035E000002B0AD04FF0500383F31188BFF36F8F85
:1035F000BFF34F8FFB6000BFFEE7FB69184628371B
:10360000BD4680BDF40E0020000F0020F80E002003
:10361000EC0E0020FC0E002080B586B000AF786074
:103620007B687B617B68002B48D008235B427A690A
:1036300013447B617B693B613B695A68214B1B6882
:103640001340002B0AD14FF0500383F31188BFF3CE
:103650006F8FBFF34F8FFB6000BFFEE73B691B68B6
:10366000002B0AD04FF0500383F31188BFF36F8F04
:10367000BFF34F8FBB6000BFFEE73B695A68114B39
:103680001B681340002B19D03B691B68002B15D118
:103690003B695A680B4B1B68DB431A403B695A6015
:1036A000FFF7A0FA3B695A68074B1B681344064AA8
:1036B0001360386900F06CF8FFF7A2FA00BF183702
:1036C000BD4680BD000F0020F80E002080B485B0FC
:1036D00000AF4FF44063BB60274BFB60FB6803F017
:1036E0000703002B0CD0FB680733FB60FB6823F05B
:1036F0000703FB60BA68FB68D31A1F4A1344BB6018
:10370000FB687B601D4A7B6813601C4B00225A607B
:103710007B68BA681344FB600822FB689B1AFB6055
:10372000FB6823F00703FB60FB68154A1360144B2A
:103730001B6800225A60124B1B6800221A607B68CB
:103740003B603B68FA68D21A3B685A600C4B1A68B7
:103750003B681A603B685B680A4A13603B685B68B9
:10376000094A1360094B4FF000421A6000BF14373A
:10377000BD4680BC704700BFEC020020EC0E00206C
:10378000F40E0020FC0E0020F80E0020000F002098
:1037900080B485B000AF7860274BFB6002E0FB6827
:1037A0001B68FB60FB681B687A689A42F7D8FB6865
:1037B000BB60FB685B68BA6813447A689A4208D1B8
:1037C000FB685A687B685B681A44FB685A60FB6850
:1037D0007B607B68BB607B685B68BA681A44FB6887
:1037E0001B689A4218D1FB681A68144B1B689A42EE
:1037F0000DD07B685A68FB681B685B681A447B685D
:103800005A60FB681B681A687B681A6008E00B4BFB
:103810001A687B681A6003E0FB681A687B681A60A4
:10382000FA687B689A4202D0FB687A681A6000BF27
:103830001437BD4680BC7047EC0E0020F40E00200B
:1038400003460244934200D1704703F8011BF9E795
:1038500070B500260C4D0D4C641BA410A64209D176
:1038600000F01AF800260A4D0A4C641BA410A64268
:1038700005D170BD55F8043B98470136EEE755F881
:10388000043B98470136F2E7E4380008E4380008C2
:10389000E4380008E8380008F8B500BFF8BC08BCF8
:1038A0009E467047F8B500BFF8BC08BC9E467047FE
:1038B0004D6561737572696E672044697374616EDA
:1038C000636500004D616E6167696E672041454226
:1038D00020616E64204143430000000049444C4590
:0438E00000000000E4
:0438E40035010008A2
:0438E80011010008C2
:1038EC00000080401E5A5A000024F4000100000021
:1038FC00AAAAAAAA00000000040F00206C0F002046
:10390C00D40F0020000000000000000000000000A8
:10391C00000000000000000000000000000000009B
:10392C00000000000000000000000000000000008B
:10393C00000000000000000000000000000000007B
:04394C001400002043
:04000005080015DDFD
:00000001FF
